:020000040000fa
:080000000002040000000000f2
:020000040000fa
:100008009a0200009a0200009a0200009a02000078
:100018009a0200009a0200009a0200009a02000068
:100028009a0200009a0200009a0200009a02000058
:100038009a0200009a0200009a0200009a02000048
:100048009a0200009a0200009a0200009a02000038
:100058009a0200009a0200009a0200009a02000028
:100068009a0200009a0200009a0200006e25000021
:100078009a0200009a0200009a0200009a02000008
:100088009a0200009a0200009a0200009a020000f8
:100098009a0200009a0200009a0200009a020000e8
:1000a8009a0200009a0200009a0200009a020000d8
:1000b8009a0200009a0200009a0200009a020000c8
:1000c8009a0200009a0200009a0200009a020000b8
:1000d8009a0200009a0200009a0200009a020000a8
:1000e8009a0200009a0200009a0200009a02000098
:1000f8009a0200009a0200009a0200009a02000088
:100108009a0200009a0200009a0200009a02000077
:100118009a0200009a0200009a0200009a02000067
:100128009a0200009a0200009a0200009a02000057
:100138009a0200009a0200009a0200009a02000047
:100148009a0200009a0200009a0200009a02000037
:100158009a0200009a0200009a0200009a02000027
:100168009a0200009a0200009a0200009a02000017
:100178009a0200009a0200009a0200009a02000007
:100188009a0200009a0200009a0200009a020000f7
:100198009a0200009a0200009a0200009a020000e7
:1001a8009a0200009a0200009a0200009a020000d7
:1001b8009a0200009a0200009a0200009a020000c7
:1001c8009a0200009a0200009a0200009a020000b7
:1001d8009a0200009a0200009a0200009a020000a7
:1001e8009a0200009a0200009a0200009a02000097
:0801f8009a0200009a020000c7
:020000040000fa
:100208009a0200009a0200009a0200009a02000076
:100218009a0200009a0200009a0200009a02000066
:100228009a0200009a0200009a0200009a02000056
:100238009a0200009a0200009a0200009a02000046
:100248009a0200009a0200009a0200009a02000036
:100258009a0200009a0200009a0200009a02000026
:100268009a0200009a0200009a0200006e2500001f
:100278009a0200009a0200009a0200009a02000006
:100288009a0200009a0200009a0200009a020000f6
:100298009a0200009a0200009a0200009a020000e6
:1002a8009a0200009a0200009a0200009a020000d6
:1002b8009a0200009a0200009a0200009a020000c6
:1002c8009a0200009a0200009a0200009a020000b6
:1002d8009a0200009a0200009a0200009a020000a6
:1002e8009a0200009a0200009a0200009a02000096
:1002f8009a0200009a0200009a0200009a02000086
:100308009a0200009a0200009a0200009a02000075
:100318009a0200009a0200009a0200009a02000065
:100328009a0200009a0200009a0200009a02000055
:100338009a0200009a0200009a0200009a02000045
:100348009a0200009a0200009a0200009a02000035
:100358009a0200009a0200009a0200009a02000025
:100368009a0200009a0200009a0200009a02000015
:100378009a0200009a0200009a0200009a02000005
:100388009a0200009a0200009a0200009a020000f5
:100398009a0200009a0200009a0200009a020000e5
:1003a8009a0200009a0200009a0200009a020000d5
:1003b8009a0200009a0200009a0200009a020000c5
:1003c8009a0200009a0200009a0200009a020000b5
:1003d8009a0200009a0200009a0200009a020000a5
:1003e8009a0200009a0200009a0200009a02000095
:0803f8009a0200009a020000c5
:020000040000fa
:10040000cfa420000e7f22000e0188000000000013
:10041000000020000000e000020032000001200087
:10042000200288000c00070060ec21000100200081
:1004300011000700000020000000e0000200320070
:10044000000002000000000034250200000000004f
:100450000040da000000fe004440a900c002200075
:100460000000e0000300320000002000a00188002e
:100470004440a80000000600910188008000780038
:100480000000eb0015003700e280400032a0b4000d
:100490009101ba00e280400032a0b4009102ba009b
:1004a000e280400032a0b4000002eb00472bde00e7
:1004b000f507b200602ce10004003a000059eb009f
:1004c0008301e900fdff3e00040037006128e100e0
:1004d000010032000082eb00040007001101ba00a5
:1004e0000200e000e8ff3a00000006003159ba00bf
:1004f0008301e9000c0032002159ba008301e900b0
:10050000080032000400e00003003a00e2804000ee
:1005100032a0b400f5ff370011d9ba008301e90019
:10052000faff3a008100e800e180400032a0b40008
:10053000000006000040da000000fe000a00fa0099
:10054000e20f500022003e0054528000e10f5200a2
:1005500006003200872320004623200024232000a9
:1005600005232000e08f530004003a00872220007a
:10057000462220002422200005222000000028001e
:100580001500600003003a00800b78000700280087
:10059000958a7300054020009482620001003a00b1
:1005a00014a0a000820278000600370094037800af
:1005b0000710b200fdff3200b103fb00070b78000b
:1005c0008502e900e08f5200f8ff3a00080037008a
:1005d00034002000c0bf9f00e2bf9f00b4bf9f0057
:1005e000d1bf9f006a805700720807006fb997005b
:1005f000020078000080fa000000060003f0a2006c
:10060000889fbe008a9fbe008c1f78001b010700d8
:10061000220133006450e1004f0032006420e10009
:100620005200320003826c0007003b000905d00035
:100630000306d000820f54000c065d000200390052
:100640000200320089017800030678008582550097
:1006500004003d000003fd008103fd008502ea0067
:100660008b854200840f720002003b006000100086
:10067000e08018006011b8000005eb007a28e10066
:100680000a00390006007800c75ddd00f707b200f8
:10069000878075002d003700828171000a01780083
:1006a000610560008180d1000080d3008502e900ef
:1006b000f9ff3b00060440008784480002003b002d
:1006c00060041400e0841c000988a30007003200c5
:1006d0008a81710082817100610164008904d10006
:1006e0000884d3008b05e800170037000978a300c1
:1006f00013003a000b00e000130034008b05e90002
:100700000804440089844c000a4474000978a3005a
:100710000d003a000b00e000070034008b05e900f3
:100720000804440089844c0001003a000b002000ba
:100730000978a300f7ff32000001eb000200370048
:10074000828171000a017800910007000cf0a70077
:1007500001f0a000da0037006420e10002003a0056
:10076000838f6c00da0033000801be000200be0077
:10077000d3003700889fbe008a9fbe008c1f780080
:10078000be000700c500330003866c006450e10022
:100790002e0032006420e100330032006150e1009d
:1007a0002f0032006120e1003100320085855500c4
:1007b000eb07b00009002000080420000500370006
:1007c0000804440089844c000a00310006034300f9
:1007d00087834b000001530081815b00f8ff3300e9
:1007e0000203be000800a0000804440089844c00f5
:1007f000f6ff3900c639dd008301730001003200c5
:10080000130020008904d1000884d3000998a300b4
:10081000050032000800a7000300a0008904d100f1
:100820000884d3008b05e8008904d1000884d30034
:100830000001eb000281d2005500070001f0a10089
:100840000cf0a70001f0a0009d0037006420e1003b
:100850009f0032000801be000200be00f7ff370013
:100860006120e1009a0032006000b800f3ff370019
:100870000000200001f82700f0ff370014002000de
:10088000ca003700f4ff2f00c80037000001be0087
:10089000650007000470a70003f0a1006509b1001e
:1008a000160032000d0035006828e1000600350012
:1008b000f0ff2f00f1ff27000300e00013003b00d2
:1008c0000100280000000500000040008180480071
:1008d0008502e900fcff3a0008003700f88f42006b
:1008e00002003c008000eb00000005008100d10008
:1008f0000080d3008502e800fcff3a000300e0001e
:1009000002003b0060001000e080180000000600bc
:100910000001be00440007000470a70003f0a1001e
:1009200003f8a30013003a006509b100100032007b
:10093000090035006928e1000200350001002800a7
:100940000000050000004000818048008502e900a9
:10095000fcff3a0000000600f88f42000500350059
:100960008100d1000080d3008502e800fcff3a003e
:10097000000006008000eb00000005004f89de004b
:1009800082017800a40037006011b800b20037007f
:1009900081002000618055000b003d000b0020000d
:1009a00061fe2f000100e1001d0034008281710012
:1009b000610164008904d1000884d3000000e800cc
:1009c000faff3a007100200061006400030070002b
:1009d000020060000900320061044400e0844c0021
:1009e0000988a500050032008b05e8006808e100d1
:1009f00002003a008904d1000884d300f20f2000dd
:100a00000258e10005003d00c75ddd00f907b200b6
:100a10008980750008007800000006000bf82700a8
:100a20008b00780000000500c70ade00f107b20065
:100a3000f50fb20008003200e1cf420002003200a0
:100a40000170a00024000500810f70000100320039
:100a50000408050044000500810f700002003a0000
:100a6000140005008502e9000000400081c0480034
:100a7000fcff3b000170a000240005000004be0044
:100a8000e9ff07000003be000405be000200be002f
:100a9000e5ff0700844f7500000006000200be005d
:100aa0006450e100050036006420e10002003600d9
:100ab0000968a30001003a000800be000160a00020
:100ac0004f0678004f05be004f04be000000060030
:100ad000f0ff2f00f1ff2700f9ff3700889fbe00cd
:100ae0008a9fbe008c1f7800e4ff0700ebff3300f5
:100af00003866c006450e100240032006420e100b1
:100b0000270032006150e100220032006120e10044
:100b1000210032008b854200eb07b1000134b800a0
:100b2000003ab8000804420089844a00013ab8003b
:100b30000030b8008880400009014a0004003300fa
:100b40000000400081804800020149008b05e90057
:100b5000c909dd008301700001003200130020008c
:100b6000c814de004814dd004709de001200b200a0
:100b7000c808de000884700085ff070001f0a100ae
:100b80000cf0a70001f0a000cdff37006120e100cc
:100b9000cfff32000801be000200be00f7ff3700a1
:100ba0006150e100fcff3a00c9ff3700889fbe009a
:100bb0008a9fbe00841f7800b0ff07004f007800b6
:100bc00011003300f0ff2f00838f6c0006003b0004
:100bd000040565000a00a7000800370009f0a60018
:100be0001000200008003700820f5400838f5c0043
:100bf000030039001000200001003e00000020002a
:100c000009f0a7000000ea004f05be004f04be0037
:100c10000000e00000000600881f78000304780050
:100c20000300e00007003d0060001000e0801800b5
:100c300060011900e081190002003b0001f02d0065
:100c4000030037000400070008f0a70001f0a0002f
:100c50004f04780000000600889fbe008a9fbe00f7
:100c600000827000040271000482710026003200cc
:100c70000004be000200be006011b8006b09200035
:100c8000950220000182cf000a0039000541b10021
:100c90000082cf00070039000541b1000982cf0072
:100ca000040039000541b1000882cf00010039007d
:100cb0000541b10005425200120032000a003b001b
:100cc00082817100610164008100d1000080d30045
:100cd0008984d3000884d3008b05e8000442e8002f
:100ce000f7ff3a00070037000804440089844c00ed
:100cf00000004800818048008b05e9000442e900bb
:100d0000f9ff3a0022ff07004f05be004f04be0066
:100d1000000006000c00fa00889fbe00f4ff2700c8
:100d200000047800d4bf9f008004eb0088bf9f00c0
:100d300099bf9f00a8bf9f00240c20007881570016
:100d4000b4bf9f00cfb0970070805700c400070069
:100d50000fba9700094a78000fba970008005200ae
:100d60004f04be000080fa0000000600d4c6b300a5
:100d70000800fa00889fbe000084fb008a9fbe0026
:100d8000844f500034003600698b20004b06200051
:100d9000110009000b84d800720040004300dd0000
:100da00000804400810578006022b8000600200021
:100db00007fe2300aa0020005001be004000be0034
:100dc000410807000002be00110009008a85d80012
:100dd00080057800e9854500c35ddd008b85440012
:100de0000203be0084bf9f0095bf9f00a6bf9f0067
:100df000b7bf9f003b02be002b03be000fb8970099
:100e00009fb897002fb99700bfb997002e08070029
:100e10000002be00110009000a84d8000104780015
:100e20004344dd00888444000203be0084bf9f0069
:100e300095bf9f00a6bf9f00b7bf9f003902be00ad
:100e40002903be000fb897009fb897002fb99700ed
:100e5000bfb997001d003700ea4f5000130036005d
:100e6000aa002000698b2000110009000a84d80024
:100e700001057800690440004355dd004344dd006e
:100e8000088444008a8444006022b80006002000e0
:100e900007fe23003800be002801be000a08070034
:100ea0003902be002903be0008003700648b200011
:100eb0004344dd00080442006022b8000600200020
:100ec00007fe23003800be002801be00fe07070011
:100ed0004f05be004f04be000080fa00000006006f
:100ee000d4c6b3000800fa00889fbe008a9fbe00e7
:100ef000e04f500022003d000040ea000004fb00eb
:100f0000844f50000a00340044062000a90020004d
:100f1000110009000404d8006a8b200011000900a8
:100f20008900d800e9004000c308dd002000370038
:100f3000ea4f50000f003400a40020001100090007
:100f40000404d800648b2000690040004300dd00e9
:100f500000004200430cdd00080242005001be00c8
:100f60004000be005403be004402be00d607070086
:100f7000370037004344dd00648b20003100370028
:100f80000004fb00844f500023003400440620007e
:100f9000a9002000110009000404d8006a80200084
:100fa000110009008900d800e9004000c308dd00f5
:100fb000810045008b0920008a8545003102be0072
:100fc0002103be003b00be002b01be00be07070090
:100fd0000002be00110009000904d80001047800d5
:100fe0004344dd00080545000203be0084bf9f00a6
:100ff00095bf9f00a6bf9f00b7bf9f003a02be00eb
:101000002a03be000fb897009fb897002fb997002a
:10101000bfb99700d5ff3700ea4f500007003400f2
:10102000a4002000110009000404d80064802000fe
:10103000690040004300dd00c5ff37004344dd0088
:1010400064802000080442003800be002801be0071
:101050004f05be004f04be000080fa0000000600ed
:10106000cf04b000889fbe008a9fbe008c9fbe0048
:10107000000678008e1f78008006eb00a1a79f0075
:10108000f2a79f006000b8006011b800b0a79f00f1
:10109000c1a79f00d2a79f00e3a79f003305370099
:1010a000afa0970054c2b3008100e800a1a79f0041
:1010b000844f500006003a00810378008002eb0064
:1010c00000c3b30001c2b300b2c2b3000e003700c8
:1010d0003c0290000404b200040032001c027800bc
:1010e000004a7800040ee800050037000000fb000d
:1010f0008c00780029050700e10f40001b05320035
:101100008d06e8001905370007027800d3c2b30046
:1011100037437800834f53000900320005003c003c
:10112000814f530008003200824f53000c003a00f8
:1011300007003700804f530009003a0006003700cf
:101140000530a000f0ff37000500a000eeff3700db
:101150000510a000ecff37000520a000eaff3700d3
:10116000e2836200010032000500a100e883620012
:10117000010032000520a1008603fb000703b10037
:10118000e98f53000d003e000403780000002000aa
:101190003602fb006a00b9000403b1009603fb00ad
:1011a000000042000703b10006027800e98f5300f7
:1011b000f7ff360090b79f000a0037008003eb006e
:1011c00097b79f00a7c2b300874f530005003a00ae
:1011d0007fa097000402e800c0007800f0a79f00fd
:1011e00091b79f00e6c2b300944f130018003a0075
:1011f00005e0a00064435300d44f13000400320004
:101200000001eb00040378000200780009003700b9
:10121000ffa197000402e80043037800f3a79f00b2
:10122000c6af9f00c7c6b3000d0037006a00b90003
:101230000080430006027800b603fb000703b100fc
:10124000e98f5300f9ff3600c0af9f00f5ff37006c
:101250008003eb0005c0a000c7af9f00f1ff37007f
:1012600034437800a4a79f00874f53001600320034
:10127000c4c6b300844f530009003c0069425200c9
:10128000844f53008100320063424200844f530078
:1012900014003200e04f5300b90432009c003700c4
:1012a00054c7b300844f53009e0032006342420093
:1012b000844f53000e00320065425200844f5300a9
:1012c00093003a000d003700708062000601200094
:1012d0000100320006002800050373008602780032
:1012e000dfff3700866f9f0005a0a0008f0037004a
:1012f000866f9f000570a0008c003700ffa097004c
:10130000866f9f0041027800f1a79f0004047800d7
:10131000e00f520001003a00689620008803780030
:101320000002eb00010037000402e80067437a0086
:10133000e04f5300fcff3a00840478004fa9970067
:10134000e00f510003003200890f5100010031000d
:10135000820478000007eb009fb19700898f51004d
:101360000100360009875100e882620004c2b30020
:10137000d5af9f001100320028003700bc0290005a
:101380000504b200040032009c027800844a780010
:10139000050ee8000700370084bf9f008c0078002e
:1013a000000220007d0407000fba9700e10f400003
:1013b000010032008d06e8000e07e900e00f57003b
:1013c000eeff3a000087eb00140037003c0290006b
:1013d0000404b20009003200080278001c037800ff
:1013e000b4427800054b780004047800060ee8004b
:1013f000e0cf520008003a000800370008027800e9
:101400008c0078003400fb000404780063040700bb
:10141000e10f4000010032008d06e800090278006b
:101420008404e900e00f5200e8ff3a005faa970049
:10143000e00f52004d04320004c2b3001000370028
:10144000bc0290000504b200040032009c02780047
:10145000844a7800050ee8000700370084bf9f002b
:101460008c007800000220004c0407000fba97009f
:10147000e10f4000010032008d06e8000e07e90090
:10148000e00f5700eeff3a00380437007fa39700c3
:101490004602780004007800cf80de000101780069
:1014a00082017800f6a79f00d0af9f00e1af9f00b8
:1014b000f2af9f0083b79f00708362004800de0098
:1014c000480add0000007200806f9f00e00f5300ab
:1014d00009003200e04f500007003200e14f4000a9
:1014e000050032002fdb9700906f9f00a66f9f00d2
:1014f0002900200003003700afdb9700190020000f
:10150000976f9f0098fa2f000f0444008bff37005d
:10151000866f9f0088fa2f000f04440019002000f6
:1015200086ff3700866f9f00050cb300d5af9f0084
:10153000047020005fa89700040260006d02320072
:10154000040021000402600002003200610020005b
:10155000c1af9f005fa997007002610005003200d3
:101560007fa097004003be004002be00f0a79f008e
:10157000060037007fa197004200be00f2a79f003f
:10158000b90507000002be000203be0084af9f0041
:1015900095af9f00a6af9f00b7af9f006022b80035
:1015a0006033b8000fa897009fa897002fa9970055
:1015b000bfa99700fe040700e00f50000c003d009b
:1015c0000fa897009fa897002fa99700bfa9970081
:1015d00003f0a20080af9f0091af9f00a2af9f00d9
:1015e000b3af9f00dfa897003100b300d1af9f00d9
:1015f0000002eb000fa897009fa897002fa9970063
:10160000bfa99700e4979f006022b8006033b8003c
:101610004b050700e00f500034003200c4fa2f00e1
:101620000f0242000fa897009fa897002fa99700cc
:10163000bfa99700070607006f909700a40020003d
:101640000000e9006300b900110009000400d8009f
:10165000e0979f00e00f500002003d000000e9000d
:10166000e0979f006f9497000840ea001cfe070077
:101670000faa97009faa97002fab9700bfab9700c8
:10168000110607000002be000203be00b4a79f00bf
:10169000c5a79f00d6a79f00e7a79f006022b800bc
:1016a0000600200007ff2300c1040700e00f5000e0
:1016b00002003d000804e9000b0037006022b8007a
:1016c00006002000470224003fa09700cfa097000b
:1016d0005fa19700efa19700ba040700e00f500048
:1016e000020035000804e800e8979f00cfaa9700a1
:1016f000f88f52000f003c00054078009bfd07006a
:101700000002be000203be000fa897009fa897002a
:101710002fa99700bfa99700280407000002be0068
:101720000203be0084af9f0095af9f00a6af9f004d
:10173000b7af9f006f949700e90f540015003c006d
:101740006022b8006033b8000fa897009fa89700e8
:101750002fa99700bfa99700f9040700e00f5000d8
:10176000320032000fa897009fa897002fa997007a
:10177000bfa997005b050700e00f5000e08f5800fd
:10178000e00f5900e08f590028003a00e10f5400a3
:10179000260034000400200005002e00b6e02200e0
:1017a000170124003fa09700cfa097005fa19700ea
:1017b000efa197007e040700e00f500002003d00fb
:1017c000730454000100370072045400e8979f002e
:1017d0004f689700c2fd07000002be000203be0072
:1017e0000fa897009fa897002fa99700bfa997005f
:1017f000b4a79f00c5a79f00d6a79f00e7a79f009b
:1018000075040700370507000205be000004be008e
:101810006000b8006011b80080af9f0091af9f00da
:10182000a2af9f00b3af9f00170037000fa897002b
:101830009fa897002fa99700bfa997002905070027
:101840000205be000004be00570507000002be00ee
:101850000203be000fa897009fa897002fa997002a
:10186000bfa997000d0607000002be000203be00dc
:1018700084af9f0095af9f00a6af9f00b7af9f00ba
:101880000002eb00e4979f006198200010c0b300b5
:10189000080037003102be003103be000440e10001
:1018a00005c8e10006d0e10007d8e10003003900d7
:1018b0000040e800f44f5000f6ff3a009fb2970056
:1018c000806f9f006f9297004fab97000482520089
:1018d0000000fb00060252000000520090b79f007b
:1018e000e00f5300020032000000e90090b79f00b3
:1018f000dfab970063826300030032001fb09700e4
:101900000000e90090b79f00dfa8970064826000a4
:101910004700320062826000e1826000e00f520006
:10192000110032003c0290000404b20008003200b2
:101930001c037800b4c2b300e08f520001003200f3
:1019400004c2e800044b7800060ee80015003700da
:10195000b0022000e08f5200010032000080e80059
:101960008c0078000c003700e08f52002600320017
:101970003c0290000404b200050032009c02780092
:1019800004c2b300844a7800050ee8000500370061
:101990008c0078000002200000030700e10f4000e7
:1019a000190032008d06e800170037003c00900057
:1019b0000004b200040032001c0078000e487800d9
:1019c000000ee8000d00370084bf9f00f5b79f00b0
:1019d000d6b79f00e7b79f008c0078000003200077
:1019e000ee0207000fba9700ffb297005fb39700af
:1019f000efb39700e10f4000010032008d06e800d0
:101a00008904e900040037000802be000a03be0092
:101a10009fb497000ec3b300e08f5400e3ff3c0077
:101a200099b79f000605be000404be007000370091
:101a30005fa997006802610021003a001700370093
:101a40003c0090000004b200040032001c0078004a
:101a50000e487800000ee8000d00370084bf9f009c
:101a6000f5b79f00d6b79f00e7b79f008c007800be
:101a700000022000c90207000fba9700ffb29700ca
:101a80005fb39700efb39700e10f40000100320011
:101a90008d06e8008904e900040037000802be0052
:101aa0000a03be009fb497000ec2b300e08f54003b
:101ab000e3ff3c0099b79f000605be000404be008a
:101ac000dfa9970062826100e1826100e00f5200ad
:101ad000110032003c0290000404b2000800320001
:101ae0001c037800b4c2b300e08f52000100320042
:101af00004c2e800044b7800060ee8003b00370003
:101b0000b0022000e08f5200010032000080e800a7
:101b10008c00780032003700e08f52003400320031
:101b20003c0290000404b200050032009c027800e0
:101b300004c2b300844a7800050ee8002b00370089
:101b40008c00780000022000250037003c02900045
:101b50008502fb000404b20011003200e49720006b
:101b6000c32add00850242001c0778005503be0031
:101b70004502be000800be000a01be000a060700ba
:101b8000a4002000050020006033b8000d06070007
:101b900005c3b300054f40000e0ee80013003700e8
:101ba000e6972000c32add00850243000800be003e
:101bb0000a01be005503be004502be00fa0507003b
:101bc000a4002000050020006033b800fd050700d8
:101bd0008c0078000403200000024200040078001a
:101be0006e020700e10f4000010032008d06e800a0
:101bf0000f6a97008442e900856f9f00e04f520012
:101c0000d2ff3a00110037003c0290000404b200f9
:101c1000040032001c027800084a7800040ee80034
:101c2000050037008c007800000320005b020700ed
:101c3000e10f4000010032008d06e8006f9297002e
:101c40000402e900e4979f000100370008c3b300d5
:101c50006f929700e00f5200ebff3c00cfab970074
:101c6000f28f53000300340024c1b300846f9f003f
:101c7000020037000fd89700806f9f000f6a97000f
:101c8000cfa897008402fb008582500095a79f0093
:101c9000e04f52000e0032003c0290000404b200fb
:101ca000050032001c027800e5c2b300054a780046
:101cb000040ee800050037008c007800e0022000e8
:101cc00036020700e10f4000010032008d06e800f7
:101cd0000f68970082fc07000002be000203be00ee
:101ce0000fa897009fa897002fa99700bfa997005a
:101cf00075040700fb030700ee9720000205be00f5
:101d00000004be00340037003c0290008502fb0056
:101d10000404b20012003200c32add00850247002d
:101d20001c0178005503be004502be00c2af9f00f3
:101d30000800be000a01be009b050700a4002000a9
:101d4000050020006033b8009e0507004faa9700e9
:101d500005c3b300054a4000040ee8001200370036
:101d6000c32add00850247000800be000a01be004c
:101d70005503be004502be008b050700a4002000ed
:101d8000050020006033b8008e0507008c00780045
:101d9000040320000002420004007800ff01070055
:101da000e10f4000010032008d06e8000f6b970044
:101db0000602fb004322dd00040247000800be00cb
:101dc0000a01be005403be004402be007d050700a8
:101dd0000205be000004be000f6a97008442e900bd
:101de000856f9f00e04f5200c7ff3a001700370091
:101df0003c0090000004b200040032001c00780097
:101e00000e487800000ee8000d00370084bf9f00e8
:101e1000f5b79f00d6b79f00e7b79f008c0078000a
:101e200000032000dd0107000fba9700ffb2970002
:101e30005fb39700efb39700e10f4000010032005d
:101e40008d06e8008904e900040037000802be009e
:101e50000a03be009fa497000ec3b300e08f540096
:101e6000e3ff3a000605be000404be00dfab9700a6
:101e7000e8826300bd0132001fb09700e00f500000
:101e8000ba0134000802be000a03be000ec2b3004d
:101e9000800478003c0090000004b200040032008e
:101ea0001c0078000e487800000ee8000d00370096
:101eb00084bf9f00f5b79f00d6b79f00e7b79f008c
:101ec0008c00780000022000b40107000fba9700d0
:101ed000ffb297005fb39700efb39700e10f4000a8
:101ee000010032008d06e8008904e900e9ff3a00ac
:101ef0009e013700dfa89700e08f500005003d00ed
:101f00007fa197004205be004204be00f2a79f00d9
:101f100015003700dfa99700f08261000c00320045
:101f20007fa097004003be00b49f9f00969f9f0034
:101f3000a79f9f00c49f9f00f0a79f001f9c970032
:101f4000af9c97003f9d9700cf9d970006003700fc
:101f50007fa1970042047800f2a79f0009002000ab
:101f60000a0020000b002000cfa99700e08f51004d
:101f700009003a0014002000c4af9f00e00f540095
:101f8000e08f5c00e00f5d00e08f5d00020032003a
:101f90008002eb00c5af9f005fab970004082000f4
:101fa000060cb20086af9f00840f53001000320071
:101fb000040c2000840f530021003a006598200093
:101fc00014c0b3003500be003501be000040e10082
:101fd00001c8e10002d0e10003d8e1001700390098
:101fe0000442e800f44f5200f6ff3a0013003700b5
:101ff00014c0b30000012000010020006011b800ef
:102000000040e10001c8e10002d0e10003d8e10096
:102010000a003900470020000000d0008180d20073
:102020000281d2008381d2008703e900faff3a00df
:102030000442e800f04f5200f1ff3a00846f9f0025
:102040000f689700cfa897000002fb00810f520095
:1020500002003d00816f9f00040037004fa99700e8
:10206000840f510001003d00c4af9f009fb1970055
:10207000e08f510005003200dfaa97006382620002
:10208000020032008301e90093b79f00040024009e
:102090005fab970004026300090032009fb3970012
:1020a0004fa89700808f53000300340080835300b3
:1020b00097b79f00020037008000eb0091b79f00a8
:1020c0000f6997000007eb000202fb009fb1970029
:1020d000848f51000100340004875100dfaa97006b
:1020e000648262003b00320005037800e202630074
:1020f00061026300e08f520011003200bc029000c8
:102100000504b200080032009c027800b6c2b30099
:10211000e00f52000100320006c3e800864a780052
:10212000050ee80015003700b0022000e00f520055
:10213000010032000080e8008c0078000c003700bd
:10214000e00f52000e0032003c0290000404b20086
:10215000050032001c02780005c2b300054a780071
:10216000040ee800050037008c0078000002200013
:102170000a010700e10f4000010032008d06e8006f
:10218000e00f57005000320004c3b300bc029000bf
:102190000504b200040032009c027800844a7800f2
:1021a000050ee8000700370084bf9f008c00780010
:1021b00000032000f90007000fba9700e10f40006c
:1021c000010032008d06e8000e07e900efff3a003b
:1021d0003d003700e00f570015003200dfab9700dd
:1021e0006882630012003a0004c2b300bc0290008f
:1021f0000504b200040032009c027800844a780092
:10220000050ee8000700370084bf9f008c007800af
:1022100000022000e10007000fba9700e10f400024
:10222000010032008d06e8000e07e900efff3a00da
:102230005fa89700e202600061026000e08f520038
:1022400011003200bc0290000504b2000800320008
:102250009c027800b6c2b300e00f520001003200c9
:1022600006c3e800864a7800050ee800150037002e
:10227000b0022000e00f5200010032000080e800b0
:102280008c0078000c003700e00f52000e00320086
:102290003c0290000404b200050032001c027800e9
:1022a00005c2b300054a7800040ee80005003700b7
:1022b0008c00780000022000b8000700e10f400009
:1022c000010032008d06e800cfa89700e4972000b7
:1022d0008102e900dfa997004229dd00f081610059
:1022e000c32add0092a79f0004824200839f9f00c3
:1022f0008e02780098b79f00a9b79f00bab79f00d9
:10230000cbb79f00f5979f00040778007c0037004b
:10231000cfa89700040820008100e9000fa99700ca
:10232000c1af9f00840f510050003200040c200008
:10233000840f51005d003a00dfa99700e08f510043
:102340001a003d003e04be002e05be001fb09700df
:10235000afb097003fb19700cfb197000802be0021
:102360000a03be00100407000802be000a03be00f4
:10237000806f9f000000fb00cf80de00010178002d
:1023800082017800710407001fb29700afb2970076
:102390003fb39700cfb397000002520081825a00ea
:1023a00002035b0083835b001f0037008f9a970056
:1023b000e08f5200210032001fb29700afb29700a9
:1023c0003e04be002e05be000400be0084bf9f0078
:1023d000f5b79f000801be00320307000801be00e8
:1023e000806f9f000000fb00cf80de003d030700f0
:1023f0000fba9700ffb297000003520081835a0082
:102400000000eb00d69f9f00e79f9f0080a79f00e2
:102410008003eb00f79f9f005f9a9700ef9a970069
:102420007f9b97008fa3970094b79f00a5b79f004d
:10243000b6b79f00c7b79f00080037001e0278009c
:102440009fb29700110009008482d800a4002000e8
:10245000110009000480d800816f9f000f6b970066
:102460000643b000866f9f00100037001fb2970030
:10247000afb297003fb39700cfb397001fa097006c
:10248000d19620000000e900050033008703d10049
:102490000683d3008582d3000482d300f9ff37007e
:1024a0006f02620061427a00846f9f003c029000dc
:1024b0000404b200070032009c0278000f6a970003
:1024c000844a7800050ee800e04f520007003a0009
:1024d000070037000f6997008c0078000200fb00ae
:1024e0002e000700e10f4000010032008d06e800d9
:1024f0009fa19700e481510093a79f0068075700b0
:102500004faa9700e00f520081ff3a005fab97009f
:102510007f979700e802630014003200e00f570035
:102520001200340004c2b300bc0290000504b200e3
:10253000040032009c027800844a7800050ee8000e
:102540000700370084bf9f008c0078000002200045
:10255000120007000fba9700e10f4000010032009f
:102560008d06e8000e07e900efff3a00afa39700e1
:1025700017407800806f9f00e04f5000c8fa3a0083
:102580004f0778000d0078004f06be004f05be00d3
:102590004f04be00cf04b10000000600889fbe00bb
:1025a000010478008084eb0038029000e2026200af
:1025b0003b00320004037800980290000620b2002d
:1025c00002003a00e08f520035003a000490a0006b
:1025d0008004780034049800f90fb200e08f5200b4
:1025e00002003a00a8029000050c7800ea8f54001f
:1025f00005003a000408b20003003a0088007800a1
:10260000d0002000e5ff070018029000d8029000db
:10261000850f52000b0032000402e80015c0b30021
:102620001404980018027800094a7800040ce800a5
:1026300044a42000054a7800ea8f540018003a00ac
:10264000050037000940780088007800170007006f
:102650008004780012003700380290000410b200a5
:102660000f00320018019000a80090004800900070
:10267000b2f7070018029000840f500004003200e7
:10268000380290000403b300340498008084eb0007
:102690000002eb001404980028029000040c78005b
:1026a000090078004f04be00000006000200fa0096
:1026b000889fbe0001047800a0ff9f0038029000b0
:1026c000840278000504b200020032000000fb0022
:1026d00035003700e202620005003a000403b3004f
:1026e00015049800340498000080eb002e00370099
:1026f000d8049000e08f540006003a001200200039
:10270000e6805700480090008cf7070019049800f5
:1027100023003700a8029000e08f520008003a0022
:1027200075a420000430a00025049800050c780052
:1027300034049800250020005504980015049800e2
:1027400018019000a8009000480090007bf7070057
:10275000280290008082eb0015049800affa9700e1
:10276000054a7800040ce8002ffa9700ea4f52005f
:102770000b003a00380290000410b200080032004a
:1027800018019000a8009000480090006bf7070027
:102790000002eb00a802900014049800050c7800d9
:1027a0002ffa97000400fb004f04be000080fa00df
:1027b0000000060000c0da00000006002800fa0051
:1027c000889fbe008a9fbe008c9fbe0007067800cf
:1027d000878669000c003b000304780087047800ba
:1027e00008f0a10009f0a100840f5000858f580067
:1027f000860f5900890f5c00030033000cf0a20023
:1028000001003a000cf0a100fe0007006400e100a6
:102810005f003200780147006408e1006100320087
:102820006c014700748557003200be001201be00e3
:102830003a04be001a05be001e039000be0a9000b6
:102840008503530006003d000004fd008104fd00e7
:102850000205fd008305fd008703ea0005037800fb
:102860000df8a3000400320060041400e0841c0092
:1028700060051d00e0851d006022b8007d0320007a
:102880000d38e1008006eb000b0039004433dd0019
:10289000f300b200830173003900370084827200b4
:1028a0000d027800e10664008b85d1000a85d30013
:1028b0008984d3000884d3008703e900f7ff3b0035
:1028c00008004000898048000a0149008b814900c6
:1028d00004003b0060001000e08018006001190057
:1028e000e08119000358a300090032008d827200b4
:1028f00084827200610260008301d1000281d300f2
:102900008180d3000080d3000603e8001b0037005d
:102910000348a30017003a000600e0001700340047
:102920000603e9000d00a300000048008180480074
:1029300002014900838149000348a3000f003a00c7
:102940000600e000090034000603e9000000400032
:1029500081804800020149008381490001003a005a
:102960000003eb000348a300f5ff32006022b8002b
:1029700002003700848272006182660075000700e1
:1029800003f0a1000cf0a70003f0a000b100370095
:10299000640147006408e10002003a000df8a3005a
:1029a000a9003a003200be001201be00a9003700a3
:1029b0008f1fd1000e0307008f87e9000000e000a1
:1029c00000000600809feb00090307008f87e900e5
:1029d0000000e000000006002800fa00889fbe000a
:1029e0008a9fbe008c9fbe0003866b008500070097
:1029f0006400e100440032006408e1004a00320053
:102a00006100e100460032006108e1004900320047
:102a1000ec0647006000b8003d02be003d03be006a
:102a2000f48657006011b8003d04be003d05be00ad
:102a30007d0320000b0037000000a0008d06e90098
:102a4000130032000402420085824a0006034b0054
:102a500087834b000000400081804800020149004c
:102a6000838149000802520089825a000a035b00f0
:102a70008b835b00f0ff3b000802420089824a0022
:102a80000a034b008b834b008d06e900edff3a00f3
:102a90008482720086827200f707b2008782720019
:102aa00001003200150020001e0490003e0b900033
:102ab00006035400e63fb0000368a300070032009d
:102ac0000000a7000500a0008301d1000281d3000f
:102ad0008180d3000080d3000603e8008301d10089
:102ae0000281d3008180d3000080d3000002eb007c
:102af0000482d2001700070003f0a1000cf0a70029
:102b000003f0a00053003700640247006408e100ae
:102b10004d0032003400be003401be00f6ff370025
:102b20006108e100480032006011b8006000b800a0
:102b3000f1ff370003ff270002002000fbff3700f2
:102b4000801feb00aa0207008f87e9000000e00069
:102b50000000060018002000570020000804530061
:102b60000d003d000600200097fc2f000740e1000b
:102b70001e00340084827200610260008301d10073
:102b80000281d3008180d3000080d3000804e800d4
:102b9000f8ff3a004700200061046000050474005b
:102ba000040464000d00320061004000e080480031
:102bb00060014900e081490003b8a5000700320028
:102bc0000603e8006538e10004003a008301d10003
:102bd0000281d3008180d3000080d300f87f2000e1
:102be0000830e10003003500080378006000b800f9
:102bf0006011b8004433dd00f300b20083017300bc
:102c000000000600680447000294be000094be0065
:102c1000fc0447008694be008494be00090078003e
:102c2000bc02070008007800ba020700990078008b
:102c3000814f70000b003b000800be0095020700aa
:102c40004f00b10003003700f3ff2700f2ff2f0011
:102c50006110b9004f06be004f05be004f04be0014
:102c60000080fa0000000600810378006ef707007c
:102c70000001be006000b8000478a30013003a0011
:102c80006220e10015003e000d0039008301d100f3
:102c90000281d3008180d3008301d1000281d3005f
:102ca0008180d3008301d1000281d3008180d300d1
:102cb0000538b000c42add00f300b2008381720041
:102cc00007f0a70003f0a00000000600f3ff2700b4
:102cd000f2ff2f006110b900fbff370003ff270050
:102ce000f7ff37001400fa00889fbe008a9fbe00dd
:102cf0008c9fbe000004be000205be0068004700b5
:102d00000a90be000890be00820207000070a70073
:102d10000bf0a1000bf8a30020003a009e099000e0
:102d20000e099000fe0090006e0090009e02900040
:102d30003443200084825200c6ff32000a003c0067
:102d4000b4fc2f000428e100140034008301d100fa
:102d50000281d3008180d3000080d3008502e80087
:102d6000faff3a00bbff3700b40020000428e1005e
:102d700007003c000000400081804800020149003b
:102d8000838149008502e900faff3a00b1ff37006c
:102d90000300280002002000010037006011b80085
:102da0006000b800abff3700889fbe000082700053
:102db00004027100048271002400320036432000b6
:102dc000c50020008383cf000a0039000541b1000f
:102dd0008283cf00070039000541b1008183cf0015
:102de000040039000541b1008083cf0001003900a3
:102df0000541b10085c353006022b80012003200c3
:102e00000a003b0084827200610260008301d100ed
:102e10000281d3008180d3000080d3000603e80044
:102e20008743e800f7ff3a00070037000000400042
:102e30008180480002014900838149000603e900be
:102e40008743e900f9ff3a0042ff07004f04be0044
:102e5000000006001400fa00889fbe008a9fbe0092
:102e60008c9fbe00040678000004be000205be0070
:102e7000680047000a90be000890be0025020700c7
:102e80006200e1000800be000a01be00040020004c
:102e90000b003a001e029000e43fb1006e0090006b
:102ea000fe0090000e0990009e099000f300b20011
:102eb00005fe2300858171000bf0a70003f0a00040
:102ec000040e780063ff37002800fa00889fbe00d8
:102ed0008a9fbe008c9fbe0003866b0049ff0700df
:102ee0000028a30064003a000128a30067003a000c
:102ef0000008a30062003a000108a30065003a0040
:102f00001e009000be08900081064000ed3fb10019
:102f1000f4805700ee019000111ab8008e0990005d
:102f2000311bb8009e099000311cb800511db8003b
:102f3000f485570046000700fe0190003a000700a4
:102f40008b85e8003e0007008e09900040000700d6
:102f5000ee019000340007008b85e8003800070080
:102f60008e099000400007009e0990001b18b800d1
:102f7000890440000a854800fe01900034000700e3
:102f80008b85e80038000700ee0190003000070054
:102f90008e0990001b18b800890440000a8548007b
:102fa0000a98a30008003a000402420085824a0001
:102fb00006034b0087834b0008044c0089844c00b7
:102fc0000a054d008d06e9008482720085027300b7
:102fd0004c3add008502720001003200150020002d
:102fe000443ade001400b2004538de00cb45dd0077
:102ff0000b007000c540de00cb4ddd008b80700003
:103000004549de00cb55dd000b017100c551de00e6
:103010000d037800cffe070003f0a1000cf0a7001d
:1030200003f0a0000bff37001b18b800850240001a
:1030300006834800e0834b0060044c000700370023
:103040001b18b8000603400087834800faff3700ca
:103050001b18b8008703400008844800e0844c0037
:1030600060054d00000006001b18b8000804400071
:1030700089844800faff37000108a300f2fe3a00f5
:103080005800be005801be00e3ff37000008a3004f
:10309000edfe3a0009047800f9ff370007f0a200be
:1030a000c6fd37006022b800060220000000d000f4
:1030b0008180d2000482d2008582d2000000a0006c
:1030c0000202520083825a000300310002024200d1
:1030d00083824a000000a1000603e900f3ff3a00e2
:1030e00000000600020ab900001bb9000200b80087
:1030f000810042008100430000000600889fbe005e
:103100008a9fbe003004be002005be0004044400b7
:1031100085844c0006054d0087854d000898be004b
:103120000a90be000440e10005c8e10006d0e100bd
:1031300007d8e10002003100680040001008e800f4
:103140004f05be004f04be00000006001000fa004c
:10315000889fbe008a9fbe00110020000605be00a9
:103160000404be003002be002003be00c4b79f00ae
:10317000d5b79f00e6b79f00f7b79f00080252003f
:1031800089825a000a035b008b835b0084bf9f0027
:1031900095bf9f00a6bf9f00b7bf9f000498be00c9
:1031a0000698be004fb29700dfb297006fb397004a
:1031b000ffb397000820e10009a8e1000ab0e10090
:1031c0000bb8e100010039008000eb004f05be00a4
:1031d000108810004f04be000080fa0000000600b6
:1031e0001400fa00889fbe008a9fbe008c9fbe001c
:1031f0000006eb003e000700ccb79f00bcb79f0065
:10320000acb79f009cb79f008cb79f000605be001f
:103210000404be000d0420004fb39700bfb2970016
:10322000860343002fb29700e00f530004003d00d7
:103230003d0007000f004000b0ff0700030037000b
:10324000390007000f004000c0ff0700cfb2970011
:1032500095bf9f00e08f5200090035002b0007004a
:1032600014002000050020006033b8000000720048
:103270008180720002017300838173001c000700cb
:103280000c06e8008d0f5600e3ff3a001fba9700c6
:10329000e00f520005003d000802be000a03be0018
:1032a00000fe2f000f00400094ff07004faa970078
:1032b000e00f520008003a000fb497009fb4970047
:1032c0002fb59700bfb59700d8b79f00e9b79f000b
:1032d000fab79f008bbf9f000c0007004f06be008f
:1032e0004f05be004f04be000080fa00000006003b
:1032f000010007000000060090b79f00a1b79f00e3
:10330000b2b79f00c3b79f0000000600010007008e
:10331000000006001fb09700afb097003fb19700c4
:10332000cfb19700000006004f2bde00f9ff070029
:1033300086837300858242004f23de00a7b79f007b
:10334000868272000402420095b79f00ffaa970090
:103350004f2bde00858242000602720084b79f0078
:103360006faa97004f23de0004024200868272009b
:10337000f5af9f004f18de0000027200e5ff070066
:10338000e4af9f0000004000818048000201490036
:10339000838149000802be000a03be00d6ff070071
:1033a00000fe2f0000000600881f78001800200093
:1033b000881f78008aff07008f87e9004f04780094
:1033c00000000600801feb0085ff07008f87e900e3
:1033d00000000600889fbe008a9fbe00e00f5000dc
:1033e000e08f5800e00f5900e08f59000c003d00bd
:1033f0006044b8006055b8000000540081805c0053
:1034000002015d0083815d001800200015000700a7
:1034100008003d00180007000004eb00050037001d
:103420000004eb000f00070002003d00120007003f
:1034300018002000dcff0700e00f540006003200f7
:103440006022b8006033b8000000520081805a004a
:1034500002015b0083815b004f05be004f04be008c
:1034600000000600e00f5200e08f5a00e00f5b0002
:10347000e08f5b00000006006044b8006055b800b3
:103480000402540085825c0006035d0087835d00b2
:1034900000000600889fbe008a9fbe008c1f780037
:1034a000e00f5000e08f5800e00f5900e08f590006
:1034b0000d003d006044b8006055b8001c002000bd
:1034c0000000540081805c0002015d0083815d008a
:1034d0000820e10009a8e1000ab0e1000bb8e10012
:1034e0000d003d00080037000006eb00e00f520021
:1034f000e08f5a00e00f5b00e08f5b0006003d00ac
:103500006044b8006055b8000402540085825c0035
:1035100006035d0087835d00aaff0700e00f5600e9
:10352000060032006022b8006033b800000052008c
:1035300081805a0002015b0083815b004f067800a6
:103540004f05be004f04be0000000600889fbe006d
:103550008a9fbe008c1f78000006eb00e00f500031
:10356000e08f5800e00f5900e08f590007003d0040
:103570006044b8006055b8001c00200000005400f2
:1035800081805c0002015d0083815d00e00f5200dc
:10359000e08f5a00e00f5b00e08f5b0007003d000a
:1035a0006044b8006055b8000c00a200040254004a
:1035b00085825c0006035d0087835d007c00070058
:1035c000e00f5600060032006022b8006033b800f9
:1035d0000000520081805a0002015b0083815b0081
:1035e0004f0678004f05be004f04be0000000600e5
:1035f000889fbe008a9fbe008c9fbe000404be0050
:103600000605be00809fbe00829fbe002f000700ff
:10361000040678000800be000a01be002b00070067
:10362000840678004f03be004f02be008d4f760027
:103630007fb0970013003300f0ff2f008b8f6b00db
:1036400006003b000d0666000c00a7000a003700cc
:1036500007f0a600100020000a003700880f520073
:10366000898f5a008a0f5b008b8f5b000300390043
:103670001000200001003e000000200007f0a7001d
:103680000000ea004f06be004f05be004f04be001a
:1036900000000600e48240001078a300070032001a
:1036a000640240001178a3003400be001401be0083
:1036b000040032000330a700000006003500be0001
:1036c0001501be000330a0000000060005ff270022
:1036d00005826100070032000428e1000100320089
:1036e000240005000600070001003a004400050020
:1036f0000408050002000700f9ff3a001400050065
:103700006f82610081027000850271008502720083
:1037100000000600800078005002be005003be008a
:103720004439de00f700b200f37f2000030161009e
:10373000090032000218e10016003a00850172000b
:1037400083017300838173000008200015003a0094
:1037500040002000130037008501720083017300d0
:103760008381730005003a0004a8be0006a8be00cd
:10377000100020000b0037000201e90004024200a3
:1037800085824a0006034b0087834b000748a3004d
:10379000f9ff32000740a00004a8be0006a8be0042
:1037a0002000200080009800920098000000060091
:1037b000889fbe008a9fbe008c9fbe000404b80094
:1037c0000506b8008904460060854e000606b8006c
:1037d0000a054600e0854e000706b8008b05460046
:1037e000040eb800890446000a854e00e0854d00ad
:1037f000050eb8000a0546008b854e00060eb8007f
:103800008b0546000416b8000a0546008b854e005d
:103810000516b8008b054600041eb8008b0546004f
:103820000800be000a01be004f06be004f05be00e4
:083830004f04be000000060079
:020000040000fa
:10383800466f0000727700006172000064000000ab
:1038480042610000636b000000490000646c0000e6
:10385800650000002020000020200000202000003b
:103868002020000000000000252e00003266000025
:103878002056000000000000486500006c6c000045
:083888006f21000000000000a8
:020000040000fa
:103890000800fa00004f78001107980022079800ee
:1038a000330798003e029000e00f52003a003200c9
:1038b0009e4278000582fb004322de00044278002d
:1038c0006142620061426200614262000482fb0068
:1038d000610262004922dd0066168000f5df2f00dc
:1038e0008502630005027200641688009e4278001b
:1038f0000582fb004222de00044278006142620041
:1039000061426200614262000482fb006102620067
:103910004822dd0066168000f5ef2f008502630067
:1039200005027200641688009e4278000582fb0042
:103930000402d100044278006142620061426200e8
:10394000614262000482fb00610262004722dd00e6
:1039500066168000f5f72f008502630005027200ed
:10396000641688009e42780061c262006142620073
:10397000614262000482fb00610262004622dd00b7
:1039800066168000f5fb2f008502630005027200b9
:10399000641688003a0037009e4278000582fb00da
:1039a0004722de0004427800614262000482fb008c
:1039b000610262004922dd0066168000f5df2f00fb
:1039c0008502630005027200641688009e4278003a
:1039d0000582fb004622de0004427800614262005c
:1039e00061426200614262000482fb006102620087
:1039f0004822dd0066168000f5ef2f008502630087
:103a000005027200641688009e4278000582fb0061
:103a10004522de0004427800614262006142620099
:103a2000614262000482fb00610262004722dd0005
:103a300066168000f5f72f0085026300050272000c
:103a4000641688009e4278000582fb004422de0056
:103a50000442780061426200614262006142620099
:103a60000482fb00610262004622dd0066168000cf
:103a7000f5fb2f00850263000502720064168800c2
:103a80001e02900004427800614262000482fb0042
:103a9000610262004522dd0066168000f5fd2f0000
:103aa0008502630005027200641688001000200081
:103ab0009a030700cc82a80010002000970307009b
:103ac000cc82a90010002000940307002e00900073
:103ad000920307000080fa00000006000600fa00ca
:103ae000004f780011079800220798008001eb0032
:103af0002e0190009e0090001e40780064ff070099
:103b0000130020002e0190009e0090001e407800bf
:103b10005fff07000080fa00000006000200fa00c4
:103b2000004f78001e427800220320001100200080
:103b300004407800e9ff07000080fa00000006005a
:103b40000000fa00c922a900c902a900c8e2a90020
:103b5000c8c2a900c882a900c8a2a9000002eb003f
:103b60006416880080a923006c0307008001eb0025
:103b7000820621008000eb0000c3b30044ff070071
:103b80008001eb00820720008000eb0000c3b3003f
:103b90003fff07008001eb00820720008000eb0060
:103ba00000c3b3003aff0700130020008207200083
:103bb0008000eb0020c0b30035ff07002203200087
:103bc0008000eb0080c2b300c4ff07002203200086
:103bd0008000eb0080c0b300c0ff0700c25d200082
:103be0008000eb0010c0b300bcff070022032000e0
:103bf0008000eb0060c0b300b8ff07002203200084
:103c00008000eb00c0c0b300b4ff07000080fa00e2
:103c1000000006000400fa00100798000002eb0004
:103c2000040f78000002eb00040f78000900370051
:103c30001e0278009e029000048242001442780026
:103c4000e20220001100200004407800a3ff0700da
:103c50001e0fe8001e0278009e02900004824200bf
:103c600014427800e04f5200f1ff3a000080fa0061
:103c7000000006000000fa00c25d20008000eb009a
:103c800010c0b30095ff07000080fa000000060096
:103c90000200fa00004f7800114798009e42780019
:103ca0000582fb000482e8000442780065002000e1
:103cb0008522dd001e42900004c242002203200043
:103cc0008000eb000440780084ff07000080fa00c9
:103cd000000006000200fa0099ff07000002eb0056
:103ce000040f780030c6b3008cff07000002eb0021
:103cf000040f780003003700803e20000703070010
:103d00001e0fe800743e20009e027800848f52004f
:103d1000f9ff3400d7ff070000c42900bdff0700ea
:103d200021c0b30010c0b300d9ff07000002eb00b0
:103d3000040f780003003700803e2000f7020700e0
:103d40001e0fe800743e20009e027800848f52000f
:103d5000f9ff340000c42900aeff07000002eb00a9
:103d6000040f780003003700803e2000eb020700bc
:103d70001e0fe800743e20009e027800848f5200df
:0c3d8000f9ff34000080fa00000006008b
:020000040000fa
:103d8c0000080000060000000000000066090000aa
:103d9c00b800000002000000286e75006c6c290051
:103dac000030310032333400353637003839610099
:103dbc006263640065660000010000000000000002
:103dcc0000000a0000000000000000000064000079
:103ddc000000000000000000e803000000000000ec
:103dec0000001000270000000000000000a086006a
:103dfc00010000000000000040420f000000000025
:103e0c000000800096980000000000000000e10017
:103e1c00f50500000000000000ca9a003b000000fd
:103e2c0000000000e40b5400020000000000e80059
:103e3c0076481700000000000010a500d4e8000030
:103e4c0000000000a0724e001809000000004000a5
:103e5c007a10f3005a0000000080c600a47e8d008a
:103e6c000300000000c16f00f28623000000000078
:103e7c008a5d78004563010000006400a7b3b600ba
:103e8c00e00d000000e889000423c7008a00000050
:103e9c0006080000600100000200000000000000a5
:103eac0000000000f03f00000000000000002400b3
:103ebc00400000000000000000594000000000001d
:103ecc00000040008f400000000000000088c3008c
:103edc0040000000000000006af8400000000000f4
:103eec00008084002e41000000000000d01263000e
:103efc004100000000008400d79741000000000042
:103f0c000065cd00cd410000000020005fa0020044
:103f1c004200000000801d00af15440000000000ae
:103f2c0040593e0029460000000000000000f0004f
:103f3c007f0000000000000000f07f000000000087
:103f4c0000000000f07f0000000000000000f00006
:103f5c007f0000000000000000f07f000000000067
:103f6c0000000000f07f0000000000000000f000e6
:103f7c007f0000000000000000f07f000000000047
:103f8c0000000000f07f0000000000000000f000c6
:103f9c003f00000000a0990099b93f00000000000c
:103fac0040e17a00843f00000000e0004d625000c8
:103fbc003f00000000e0e200361a3f000000000065
:103fcc0080b5f800e43e00000000a000f7c6b00089
:103fdc003e00000000a0f200d77a3e000000000076
:103fec00e08e7900453e00000000e0000b2e110031
:103ffc003e00000000e0df007cdb3d000000000024
:10400c0000a19c00c73b0000000000004c48b4001d
:10401c0039000000000020006ca1370000000000f7
:10402c000000000000000000000000000000000084
:10403c000000000000000000000000000000000074
:10404c000000000000000000000000000000000064
:10405c000000000000000000000000000000000054
:10406c000000000000000000000000000000000044
:10407c00000000001e0a00002600000002000000e4
:10408c00450a000000450a0009000000000200007b
:10409c00470a000000470a000e0201000000000061
:1040ac0000000000000000000602020000000000fa
:1040bc001e0a0000440a0000060000000000000078
:1040cc004a0a00000200000002000000010000008b
:0440dc0000000000e0
:020000040000fa
:1040e0000000fa00e4ff2f00641988000419800022
:1040f0000480a1000490a100041988000419800024
:104100000450a0000460a0000470a00004198800fe
:104110002043a9001419800004d0a10004e0a100ec
:1041200004f0a100141988002343a9001419800089
:104130000420a0000430a0000440a0000450a0000f
:10414000141988002203a90025e3a900251980007d
:10415000f40f2e0084826200041020000502720019
:1041600024198800a4c0b3000400780024e3b70039
:104170000002eb00441988000002eb00841988005b
:1041800021e3a80085a0a9000080fa000000060035
:104190000600fa006022b800048fbe000430200040
:1041a0002407980085a0a9002043a8000000000073
:1041b000250480000400220004826200e00f520007
:1041c000fbff32002043a9002e0290001402780069
:1041d000050020000400be00ebf107000002be0055
:1041e0000401be001e00be0005f107000002be0073
:1041f000048fbe002e0290000482e800240798007d
:104200001e00be00a1f107000002be0004027800fb
:10421000040078000080fa00000006000e00fa009a
:10422000881f78000002eb00040f78006022b800bd
:1042300014079800250798000002eb00040f78008f
:1042400015003700d2ff0700000278006522b90090
:1042500004027800cfa2de000400be00c7f1070010
:104260000002be0002002c00f34724000400be0040
:1042700040f107000002be000401be001e009000d5
:10428000ae009000def007000002be0014079800a8
:10429000250798001e0fe800340620009e027800d3
:1042a000848f5200e7ff340002002000832c24009a
:1042b0001e009000ae0090002ef107000002be002c
:1042c000140798002507980014408000cfa2de0054
:1042d0000400be00a9f107000002be00a2702d007c
:1042e00033b223000400be00c5f007000002be0088
:1042f00018c0b3001e019000ae0190000400be0083
:104300005ef1070000027800e00f52000100350066
:104310000044eb00e04f540015003a0014408000c8
:10432000cfa2de000400be0094f107000002be0030
:10433000a2702d0033b223000400be00aff00700ce
:104340000002be0018c0b3001e019000ae01900034
:104350000400be004bf1070000027800e00f52009d
:1043600001003c000044eb00e04f54001500320017
:104370001e009000ae00900044f107000002be0055
:1043800004027800144088008040eb000040eb00fd
:104390003ffe0700660347001e029000ae02900039
:1043a000849fbe0084c32900841f78000600780023
:1043b00058f20700e68757006602470004007800bd
:1043c00014fe07004f0478000080fa000000060089
:1043d0000000fa00c942a900c962a900c062a90090
:1043e000c082a900cd42a800cd62a800c462a80086
:1043f000c482a8000002eb00340888008408800012
:104400000440a1000450a10084088800849923007e
:10441000640888000002eb00140c88000002eb0026
:10442000440c88000002eb00740c88000002eb00d2
:10443000a40c88000002eb00040c88000002eb00d2
:10444000340c88000002eb00640c88000002eb00d2
:10445000940c88008461a9008a61a9009061a90078
:104460009661a900240c80000400a1000410a000a3
:104470000420a000240c8800540c80000400a1003b
:104480000410a0000420a000540c8800840c8000bc
:104490000400a1000410a0000420a000840c8800e7
:1044a000b40c80000400a1000410a0000420a000af
:1044b000b40c88001536800004fe2f0004826200d0
:1044c0002401b3001436880015368000f40f2e0046
:1044d00084826200044021000502720014368800c4
:1044e00025368000f40f2e00848262000430210003
:1044f00005027200243688004536800004fe2f0035
:10450000048262005401b3004436880011e1a8001f
:104510000080fa00000006000400fa00008fbe00d0
:1045200072262600636624001e00be006bf10700a1
:104530000002be000400be00f5f007000002be004d
:1045400004027800040c88000080fa0000000600d5
:104550000400fa00008fbe00722626006366240065
:104560001e00be005df107000002be000400be0098
:10457000e7f007000002be0004027800340c880057
:104580000080fa00000006000400fa00008fbe0060
:1045900072262600636624001e00be004ff107004d
:1045a0000002be000400be00d9f007000002be00f9
:1045b00004027800640c88000080fa000000060005
:1045c0000400fa00008fbe007226260063662400f5
:1045d0001e00be0041f107000002be000400be0044
:1045e000cbf007000002be0004027800940c8800a3
:1045f0000080fa00000006000000fa00c882a8004f
:10460000cc82a9000080fa00000006000000fa0039
:1046100014000700260007000080fa0000000600d2
:104620000000fa0052000700390007000080fa007d
:10463000000006000000fa006000b800b6ff0700a6
:104640006000b800d0ff07006000b800c0ff07009e
:104650006000b800daff0700cc82a9000080fa00f1
:10466000000006000000fa00cc82a800c8fe070087
:1046700000027800cfa2de000400be00bff00700f9
:104680000002be0002002000034024000400be001f
:1046900038f007000002be000400be00acff0700b7
:1046a0006000b800c6ff07000080fa0000000600a6
:1046b0000000fa00cc82a800b5fe070000027800d6
:1046c000cfa2de000400be00acf007000002be0076
:1046d00002002000034024000400be0025f0070073
:1046e0000002be000401be00000020000100240002
:1046f000c2ef07000002be000400be00a2ff0700d8
:104700006000b80084ff07000080fa000000060087
:104710000000fa00cc82a8006000b8009aff0700f1
:104720009bfe070000027800cfa2de000400be005e
:1047300092f007000002be000200200003402400a7
:104740000400be000bf007000002be000401be0022
:104750000000200001002400a8ef07000002be00b6
:104760000400be006cff07000080fa000000060095
:104770000000fa00cc82a8006000b80074ff0700b7
:1047800083fe070000027800cfa2de000400be0016
:104790007af007000002be0002002000034024005f
:1047a0000400be00f3ef07000002be000400be00dc
:1047b00083ff07000080fa00000006000000fa00f6
:1047c00003ff0700defc07008bff070044fe070025
:1047d000d400070014002000044088006cfe07008d
:1047e00000027800144088008cfe07000002eb00f5
:1047f000244088000080fa00000006000000fa0053
:104800008040eb0010c0b30021fd0700c0c12900ab
:1048100000fd07007dff070080fe07000080fa0012
:10482000000006000000fa008040eb0010c0b3005a
:1048300017fd070040c22900f6fc070078ff0700bb
:1048400076fe07000080fa00000006000000fa0073
:104850008040eb0010c0b3000dfd070090c229009e
:10486000ecfc070073ff07006cfe07000080fa00f5
:10487000000006000000fa00400620004e0007007d
:10488000000000001416800062026200e00f520077
:10489000fcff32004006200047000700141680008d
:1048a00062026200e00f52001a00320025408000d0
:1048b00044002000110009008402d80001027800a1
:1048c0000402e8002440880024408000e10f5200e8
:1048d00003003a002400200004408800080037004c
:1048e00024408000e30f520003003a00340020000f
:1048f00004408800020037001400200004408800b3
:104900008040eb0010c0b300e1fc0700e0c22900ca
:10491000c0fc07000080fa00000006000200fa0058
:10492000000f7800240880000440a1000450a1007a
:10493000240888000002eb00040888001e027800aa
:10494000050020000400be000ff007000002be00ba
:10495000a2df2e00b31624000400be005ff00700a3
:104960000002be000200200003f823000400be0085
:1049700022ef07000002be000400be00e4ef0700c3
:104980000002be0004027800140888008460a900b8
:1049900005e1a80000000000240480006802620015
:1049a000e00f5200fcff32008460a90005e1a9007d
:1049b0000080fa00000006000200fa00000f7800f4
:1049c000240880000440a0000450a00024088800af
:1049d0000002eb00040888001e0278000500200099
:1049e0000400be00e8ef07000002be007266260069
:1049f000636624000400be0038f007000002be0019
:104a000002002000033824000400be0059ef070014
:104a10000002be000200200003f823000400be00d4
:104a2000f6ee07000002be000400be00b8ef07006b
:104a30000002be0004027800140888008460a90007
:104a400005e1a80000000000240480006802620064
:104a5000e00f5200fcff32008460a90005e1a900cc
:104a60000080fa00000006000400fa00000f780041
:104a7000110798000100370000000000044080008a
:104a8000050020004600200007002000860f52008d
:104a9000878f5a00f8ff3e000460010004003700d1
:104aa0000500370006003700070037000800370010
:104ab00042ff07000800370064ff070006003700c8
:104ac0004eff07000400370056ff070002003700c2
:104ad00068ff070000000000e8ff3700801f780033
:104ae000841f78003400f80000002000a001880036
:104af0000000fa008660a9001416800062026200bd
:104b0000e00f520002003a004400200004408800f8
:104b10000080fa003400f9004f0278004f0078005e
:104b2000004006000000fa00c022a8002c23a800c4
:104b30006860a8009660a8006060a8008660a90070
:104b40006405800004c0a00004d0a00004e0a00020
:0c4b5000640588000080fa0000000600e8
:020000040000fa
:020000040001f9
:0457f800ad7b000085
:020000040000fa
:020000040001f9
:0457fc003f3f00002b
:00000001FF
